{
  "contractName": "TaskAssign",
  "abi": [
    {
      "inputs": [
        {
          "internalType": "address",
          "name": "authPerson",
          "type": "address"
        }
      ],
      "stateMutability": "nonpayable",
      "type": "constructor"
    },
    {
      "inputs": [
        {
          "internalType": "address",
          "name": "",
          "type": "address"
        }
      ],
      "name": "assignedTasks",
      "outputs": [
        {
          "internalType": "uint256",
          "name": "taskNumber",
          "type": "uint256"
        },
        {
          "internalType": "string",
          "name": "desc",
          "type": "string"
        },
        {
          "internalType": "uint256",
          "name": "deadline",
          "type": "uint256"
        },
        {
          "internalType": "uint256",
          "name": "idOfReward",
          "type": "uint256"
        },
        {
          "internalType": "string",
          "name": "info",
          "type": "string"
        }
      ],
      "stateMutability": "view",
      "type": "function",
      "constant": true
    },
    {
      "inputs": [
        {
          "internalType": "address",
          "name": "",
          "type": "address"
        },
        {
          "internalType": "address",
          "name": "",
          "type": "address"
        },
        {
          "internalType": "uint256",
          "name": "",
          "type": "uint256"
        },
        {
          "internalType": "bytes",
          "name": "",
          "type": "bytes"
        }
      ],
      "name": "onERC721Received",
      "outputs": [
        {
          "internalType": "bytes4",
          "name": "",
          "type": "bytes4"
        }
      ],
      "stateMutability": "nonpayable",
      "type": "function"
    },
    {
      "inputs": [
        {
          "internalType": "address",
          "name": "",
          "type": "address"
        },
        {
          "internalType": "uint256",
          "name": "",
          "type": "uint256"
        }
      ],
      "name": "statusOfReports",
      "outputs": [
        {
          "internalType": "bool",
          "name": "",
          "type": "bool"
        }
      ],
      "stateMutability": "view",
      "type": "function",
      "constant": true
    },
    {
      "inputs": [
        {
          "internalType": "uint256",
          "name": "",
          "type": "uint256"
        }
      ],
      "name": "taskList",
      "outputs": [
        {
          "internalType": "uint256",
          "name": "taskNumber",
          "type": "uint256"
        },
        {
          "internalType": "string",
          "name": "desc",
          "type": "string"
        },
        {
          "internalType": "uint256",
          "name": "deadline",
          "type": "uint256"
        },
        {
          "internalType": "uint256",
          "name": "idOfReward",
          "type": "uint256"
        },
        {
          "internalType": "string",
          "name": "info",
          "type": "string"
        }
      ],
      "stateMutability": "view",
      "type": "function",
      "constant": true
    },
    {
      "inputs": [
        {
          "internalType": "uint256",
          "name": "",
          "type": "uint256"
        }
      ],
      "name": "tasks",
      "outputs": [
        {
          "internalType": "uint256",
          "name": "taskNumber",
          "type": "uint256"
        },
        {
          "internalType": "string",
          "name": "desc",
          "type": "string"
        },
        {
          "internalType": "uint256",
          "name": "deadline",
          "type": "uint256"
        },
        {
          "internalType": "uint256",
          "name": "idOfReward",
          "type": "uint256"
        },
        {
          "internalType": "string",
          "name": "info",
          "type": "string"
        }
      ],
      "stateMutability": "view",
      "type": "function",
      "constant": true
    },
    {
      "inputs": [
        {
          "internalType": "string",
          "name": "descT",
          "type": "string"
        },
        {
          "internalType": "uint256",
          "name": "deadlineT",
          "type": "uint256"
        },
        {
          "internalType": "address",
          "name": "toT",
          "type": "address"
        },
        {
          "internalType": "string",
          "name": "infoT",
          "type": "string"
        },
        {
          "internalType": "uint256",
          "name": "NFTid",
          "type": "uint256"
        }
      ],
      "name": "assignTaskToOne",
      "outputs": [
        {
          "internalType": "uint256",
          "name": "",
          "type": "uint256"
        }
      ],
      "stateMutability": "nonpayable",
      "type": "function"
    },
    {
      "inputs": [
        {
          "internalType": "string",
          "name": "descM",
          "type": "string"
        },
        {
          "internalType": "uint256",
          "name": "deadlineM",
          "type": "uint256"
        },
        {
          "internalType": "address[]",
          "name": "toM",
          "type": "address[]"
        },
        {
          "internalType": "string",
          "name": "infoM",
          "type": "string"
        },
        {
          "internalType": "uint256",
          "name": "NFTid",
          "type": "uint256"
        }
      ],
      "name": "assignTaskToSeveral",
      "outputs": [],
      "stateMutability": "nonpayable",
      "type": "function"
    },
    {
      "inputs": [
        {
          "internalType": "uint256",
          "name": "taskno",
          "type": "uint256"
        }
      ],
      "name": "reportStatus",
      "outputs": [],
      "stateMutability": "nonpayable",
      "type": "function"
    },
    {
      "inputs": [
        {
          "internalType": "uint256",
          "name": "NftId",
          "type": "uint256"
        },
        {
          "internalType": "uint256",
          "name": "taskId",
          "type": "uint256"
        },
        {
          "internalType": "address",
          "name": "rewardNFT",
          "type": "address"
        }
      ],
      "name": "transferRewardToOne",
      "outputs": [],
      "stateMutability": "nonpayable",
      "type": "function"
    },
    {
      "inputs": [
        {
          "internalType": "uint256[]",
          "name": "NftIds",
          "type": "uint256[]"
        },
        {
          "internalType": "address[]",
          "name": "receps",
          "type": "address[]"
        },
        {
          "internalType": "uint256",
          "name": "taskId",
          "type": "uint256"
        },
        {
          "internalType": "address",
          "name": "rewardNFT",
          "type": "address"
        }
      ],
      "name": "transferRewardToSeveral",
      "outputs": [],
      "stateMutability": "nonpayable",
      "type": "function"
    }
  ],
  "bytecode": "0x60806040523480156200001157600080fd5b506040516200254638038062002546833981810160405281019062000037919062000095565b806000806101000a81548173ffffffffffffffffffffffffffffffffffffffff021916908373ffffffffffffffffffffffffffffffffffffffff160217905550506200010f565b6000815190506200008f81620000f5565b92915050565b600060208284031215620000a857600080fd5b6000620000b8848285016200007e565b91505092915050565b6000620000ce82620000d5565b9050919050565b600073ffffffffffffffffffffffffffffffffffffffff82169050919050565b6200010081620000c1565b81146200010c57600080fd5b50565b612427806200011f6000396000f3fe608060405234801561001057600080fd5b506004361061009e5760003560e01c80638d977672116100665780638d9776721461016f578063bbbea052146101a3578063c135ea42146101bf578063c371d59d146101db578063daa2072f1461020b5761009e565b80630db187ec146100a3578063150b7a02146100bf57806328cdf6a2146100ef5780632a1c52a51461011f5780633a1e0c0714610153575b600080fd5b6100bd60048036038101906100b89190611a98565b61023f565b005b6100d960048036038101906100d491906119e1565b610509565b6040516100e69190611ead565b60405180910390f35b61010960048036038101906101049190611a5c565b61051d565b6040516101169190611e92565b60405180910390f35b61013960048036038101906101349190611c9c565b61054c565b60405161014a959493929190611fa3565b60405180910390f35b61016d60048036038101906101689190611bda565b610692565b005b61018960048036038101906101849190611c9c565b610a37565b60405161019a959493929190611fa3565b60405180910390f35b6101bd60048036038101906101b89190611c9c565b610b8d565b005b6101d960048036038101906101d49190611cc5565b610f43565b005b6101f560048036038101906101f09190611b33565b61118e565b6040516102029190611f88565b60405180910390f35b610225600480360381019061022091906119b8565b6115b7565b604051610236959493929190611fa3565b60405180910390f35b60008054906101000a900473ffffffffffffffffffffffffffffffffffffffff1673ffffffffffffffffffffffffffffffffffffffff163373ffffffffffffffffffffffffffffffffffffffff161461029757600080fd5b60016003600084815260200190815260200160002060030180549050116102f3576040517f08c379a00000000000000000000000000000000000000000000000000000000081526004016102ea90611f48565b60405180910390fd5b60005b84849050811015610500576001151560056000878785818110610342577f4e487b7100000000000000000000000000000000000000000000000000000000600052603260045260246000fd5b905060200201602081019061035791906119b8565b73ffffffffffffffffffffffffffffffffffffffff1673ffffffffffffffffffffffffffffffffffffffff168152602001908152602001600020600085815260200190815260200160002060009054906101000a900460ff161515146103f2576040517f08c379a00000000000000000000000000000000000000000000000000000000081526004016103e990611ee8565b60405180910390fd5b8173ffffffffffffffffffffffffffffffffffffffff166323b872dd30878785818110610448577f4e487b7100000000000000000000000000000000000000000000000000000000600052603260045260246000fd5b905060200201602081019061045d91906119b8565b8a8a86818110610496577f4e487b7100000000000000000000000000000000000000000000000000000000600052603260045260246000fd5b905060200201356040518463ffffffff1660e01b81526004016104bb93929190611e5b565b600060405180830381600087803b1580156104d557600080fd5b505af11580156104e9573d6000803e3d6000fd5b5050505080806104f8906121c0565b9150506102f6565b50505050505050565b600063150b7a0260e01b9050949350505050565b60056020528160005260406000206020528060005260406000206000915091509054906101000a900460ff1681565b60036020528060005260406000206000915090508060000154908060010180546105759061215d565b80601f01602080910402602001604051908101604052809291908181526020018280546105a19061215d565b80156105ee5780601f106105c3576101008083540402835291602001916105ee565b820191906000526020600020905b8154815290600101906020018083116105d157829003601f168201915b50505050509080600201549080600401549080600501805461060f9061215d565b80601f016020809104026020016040519081016040528092919081815260200182805461063b9061215d565b80156106885780601f1061065d57610100808354040283529160200191610688565b820191906000526020600020905b81548152906001019060200180831161066b57829003601f168201915b5050505050905085565b60006040518060c001604052806002548152602001888152602001878152602001868680806020026020016040519081016040528093929190818152602001838360200280828437600081840152601f19601f82011690508083019250505050505050815260200183815260200184815250905060018190806001815401808255809150506001900390600052602060002090600602016000909190919091506000820151816000015560208201518160010190805190602001906107589291906116fd565b5060408201518160020155606082015181600301908051906020019061077f929190611783565b506080820151816004015560a08201518160050190805190602001906107a69291906116fd565b505050806003600060025481526020019081526020016000206000820151816000015560208201518160010190805190602001906107e59291906116fd565b5060408201518160020155606082015181600301908051906020019061080c929190611783565b506080820151816004015560a08201518160050190805190602001906108339291906116fd565b509050506002600081548092919061084a906121c0565b919050555060005b85859050811015610a2d57816004600088888581811061089b577f4e487b7100000000000000000000000000000000000000000000000000000000600052603260045260246000fd5b90506020020160208101906108b091906119b8565b73ffffffffffffffffffffffffffffffffffffffff1673ffffffffffffffffffffffffffffffffffffffff1681526020019081526020016000206000820151816000015560208201518160010190805190602001906109109291906116fd565b50604082015181600201556060820151816003019080519060200190610937929190611783565b506080820151816004015560a082015181600501908051906020019061095e9291906116fd565b509050506000600560008888858181106109a1577f4e487b7100000000000000000000000000000000000000000000000000000000600052603260045260246000fd5b90506020020160208101906109b691906119b8565b73ffffffffffffffffffffffffffffffffffffffff1673ffffffffffffffffffffffffffffffffffffffff1681526020019081526020016000206000600254815260200190815260200160002060006101000a81548160ff0219169083151502179055508080610a25906121c0565b915050610852565b5050505050505050565b60018181548110610a4757600080fd5b9060005260206000209060060201600091509050806000015490806001018054610a709061215d565b80601f0160208091040260200160405190810160405280929190818152602001828054610a9c9061215d565b8015610ae95780601f10610abe57610100808354040283529160200191610ae9565b820191906000526020600020905b815481529060010190602001808311610acc57829003601f168201915b505050505090806002015490806004015490806005018054610b0a9061215d565b80601f0160208091040260200160405190810160405280929190818152602001828054610b369061215d565b8015610b835780601f10610b5857610100808354040283529160200191610b83565b820191906000526020600020905b815481529060010190602001808311610b6657829003601f168201915b5050505050905085565b6000600360008381526020019081526020016000206040518060c001604052908160008201548152602001600182018054610bc79061215d565b80601f0160208091040260200160405190810160405280929190818152602001828054610bf39061215d565b8015610c405780601f10610c1557610100808354040283529160200191610c40565b820191906000526020600020905b815481529060010190602001808311610c2357829003601f168201915b505050505081526020016002820154815260200160038201805480602002602001604051908101604052809291908181526020018280548015610cd857602002820191906000526020600020905b8160009054906101000a900473ffffffffffffffffffffffffffffffffffffffff1673ffffffffffffffffffffffffffffffffffffffff1681526020019060010190808311610c8e575b5050505050815260200160048201548152602001600582018054610cfb9061215d565b80601f0160208091040260200160405190810160405280929190818152602001828054610d279061215d565b8015610d745780601f10610d4957610100808354040283529160200191610d74565b820191906000526020600020905b815481529060010190602001808311610d5757829003601f168201915b50505050508152505090506000805b826060015151811015610e20573373ffffffffffffffffffffffffffffffffffffffff1683606001518281518110610de4577f4e487b7100000000000000000000000000000000000000000000000000000000600052603260045260246000fd5b602002602001015173ffffffffffffffffffffffffffffffffffffffff161415610e0d57600191505b8080610e18906121c0565b915050610d83565b506001151581151514610e68576040517f08c379a0000000000000000000000000000000000000000000000000000000008152600401610e5f90611f28565b60405180910390fd5b8160400151421115610eaf576040517f08c379a0000000000000000000000000000000000000000000000000000000008152600401610ea690611f08565b60405180910390fd5b60005b826060015151811015610f3d576001600560003373ffffffffffffffffffffffffffffffffffffffff1673ffffffffffffffffffffffffffffffffffffffff1681526020019081526020016000206000600254815260200190815260200160002060006101000a81548160ff0219169083151502179055508080610f35906121c0565b915050610eb2565b50505050565b60008054906101000a900473ffffffffffffffffffffffffffffffffffffffff1673ffffffffffffffffffffffffffffffffffffffff163373ffffffffffffffffffffffffffffffffffffffff1614610f9b57600080fd5b6001600360008481526020019081526020016000206003018054905014610ff7576040517f08c379a0000000000000000000000000000000000000000000000000000000008152600401610fee90611f68565b60405180910390fd5b60011515600560003373ffffffffffffffffffffffffffffffffffffffff1673ffffffffffffffffffffffffffffffffffffffff168152602001908152602001600020600084815260200190815260200160002060009054906101000a900460ff1615151461109b576040517f08c379a000000000000000000000000000000000000000000000000000000000815260040161109290611ee8565b60405180910390fd5b6000600360008481526020019081526020016000206003016000815481106110ec577f4e487b7100000000000000000000000000000000000000000000000000000000600052603260045260246000fd5b9060005260206000200160009054906101000a900473ffffffffffffffffffffffffffffffffffffffff1690508173ffffffffffffffffffffffffffffffffffffffff166323b872dd3083876040518463ffffffff1660e01b815260040161115693929190611e5b565b600060405180830381600087803b15801561117057600080fd5b505af1158015611184573d6000803e3d6000fd5b5050505050505050565b60008060009054906101000a900473ffffffffffffffffffffffffffffffffffffffff1673ffffffffffffffffffffffffffffffffffffffff163373ffffffffffffffffffffffffffffffffffffffff161461121f576040517f08c379a000000000000000000000000000000000000000000000000000000000815260040161121690611ec8565b60405180910390fd5b6000600167ffffffffffffffff811115611262577f4e487b7100000000000000000000000000000000000000000000000000000000600052604160045260246000fd5b6040519080825280602002602001820160405280156112905781602001602082028036833780820191505090505b50905084816000815181106112ce577f4e487b7100000000000000000000000000000000000000000000000000000000600052603260045260246000fd5b602002602001019073ffffffffffffffffffffffffffffffffffffffff16908173ffffffffffffffffffffffffffffffffffffffff168152505060006040518060c001604052806002548152602001898152602001888152602001838152602001858152602001868152509050600181908060018154018082558091505060019003906000526020600020906006020160009091909190915060008201518160000155602082015181600101908051906020019061138d9291906116fd565b506040820151816002015560608201518160030190805190602001906113b4929190611783565b506080820151816004015560a08201518160050190805190602001906113db9291906116fd565b5050508060036000600254815260200190815260200160002060008201518160000155602082015181600101908051906020019061141a9291906116fd565b50604082015181600201556060820151816003019080519060200190611441929190611783565b506080820151816004015560a08201518160050190805190602001906114689291906116fd565b509050506002600081548092919061147f906121c0565b919050555080600460008873ffffffffffffffffffffffffffffffffffffffff1673ffffffffffffffffffffffffffffffffffffffff1681526020019081526020016000206000820151816000015560208201518160010190805190602001906114ea9291906116fd565b50604082015181600201556060820151816003019080519060200190611511929190611783565b506080820151816004015560a08201518160050190805190602001906115389291906116fd565b509050506000600560008873ffffffffffffffffffffffffffffffffffffffff1673ffffffffffffffffffffffffffffffffffffffff1681526020019081526020016000206000600254815260200190815260200160002060006101000a81548160ff0219169083151502179055506002549250505095945050505050565b60046020528060005260406000206000915090508060000154908060010180546115e09061215d565b80601f016020809104026020016040519081016040528092919081815260200182805461160c9061215d565b80156116595780601f1061162e57610100808354040283529160200191611659565b820191906000526020600020905b81548152906001019060200180831161163c57829003601f168201915b50505050509080600201549080600401549080600501805461167a9061215d565b80601f01602080910402602001604051908101604052809291908181526020018280546116a69061215d565b80156116f35780601f106116c8576101008083540402835291602001916116f3565b820191906000526020600020905b8154815290600101906020018083116116d657829003601f168201915b5050505050905085565b8280546117099061215d565b90600052602060002090601f01602090048101928261172b5760008555611772565b82601f1061174457805160ff1916838001178555611772565b82800160010185558215611772579182015b82811115611771578251825591602001919060010190611756565b5b50905061177f919061180d565b5090565b8280548282559060005260206000209081019282156117fc579160200282015b828111156117fb5782518260006101000a81548173ffffffffffffffffffffffffffffffffffffffff021916908373ffffffffffffffffffffffffffffffffffffffff160217905550916020019190600101906117a3565b5b509050611809919061180d565b5090565b5b8082111561182657600081600090555060010161180e565b5090565b600061183d61183884612029565b612004565b90508281526020810184848401111561185557600080fd5b61186084828561211b565b509392505050565b600061187b6118768461205a565b612004565b90508281526020810184848401111561189357600080fd5b61189e84828561211b565b509392505050565b6000813590506118b5816123c3565b92915050565b60008083601f8401126118cd57600080fd5b8235905067ffffffffffffffff8111156118e657600080fd5b6020830191508360208202830111156118fe57600080fd5b9250929050565b60008083601f84011261191757600080fd5b8235905067ffffffffffffffff81111561193057600080fd5b60208301915083602082028301111561194857600080fd5b9250929050565b600082601f83011261196057600080fd5b813561197084826020860161182a565b91505092915050565b600082601f83011261198a57600080fd5b813561199a848260208601611868565b91505092915050565b6000813590506119b2816123da565b92915050565b6000602082840312156119ca57600080fd5b60006119d8848285016118a6565b91505092915050565b600080600080608085870312156119f757600080fd5b6000611a05878288016118a6565b9450506020611a16878288016118a6565b9350506040611a27878288016119a3565b925050606085013567ffffffffffffffff811115611a4457600080fd5b611a508782880161194f565b91505092959194509250565b60008060408385031215611a6f57600080fd5b6000611a7d858286016118a6565b9250506020611a8e858286016119a3565b9150509250929050565b60008060008060008060808789031215611ab157600080fd5b600087013567ffffffffffffffff811115611acb57600080fd5b611ad789828a01611905565b9650965050602087013567ffffffffffffffff811115611af657600080fd5b611b0289828a016118bb565b94509450506040611b1589828a016119a3565b9250506060611b2689828a016118a6565b9150509295509295509295565b600080600080600060a08688031215611b4b57600080fd5b600086013567ffffffffffffffff811115611b6557600080fd5b611b7188828901611979565b9550506020611b82888289016119a3565b9450506040611b93888289016118a6565b935050606086013567ffffffffffffffff811115611bb057600080fd5b611bbc88828901611979565b9250506080611bcd888289016119a3565b9150509295509295909350565b60008060008060008060a08789031215611bf357600080fd5b600087013567ffffffffffffffff811115611c0d57600080fd5b611c1989828a01611979565b9650506020611c2a89828a016119a3565b955050604087013567ffffffffffffffff811115611c4757600080fd5b611c5389828a016118bb565b9450945050606087013567ffffffffffffffff811115611c7257600080fd5b611c7e89828a01611979565b9250506080611c8f89828a016119a3565b9150509295509295509295565b600060208284031215611cae57600080fd5b6000611cbc848285016119a3565b91505092915050565b600080600060608486031215611cda57600080fd5b6000611ce8868287016119a3565b9350506020611cf9868287016119a3565b9250506040611d0a868287016118a6565b9150509250925092565b611d1d816120a7565b82525050565b611d2c816120b9565b82525050565b611d3b816120c5565b82525050565b6000611d4c8261208b565b611d568185612096565b9350611d6681856020860161212a565b611d6f81612296565b840191505092915050565b6000611d87602383612096565b9150611d92826122a7565b604082019050919050565b6000611daa601283612096565b9150611db5826122f6565b602082019050919050565b6000611dcd600f83612096565b9150611dd88261231f565b602082019050919050565b6000611df0600d83612096565b9150611dfb82612348565b602082019050919050565b6000611e13600f83612096565b9150611e1e82612371565b602082019050919050565b6000611e36600f83612096565b9150611e418261239a565b602082019050919050565b611e5581612111565b82525050565b6000606082019050611e706000830186611d14565b611e7d6020830185611d14565b611e8a6040830184611e4c565b949350505050565b6000602082019050611ea76000830184611d23565b92915050565b6000602082019050611ec26000830184611d32565b92915050565b60006020820190508181036000830152611ee181611d7a565b9050919050565b60006020820190508181036000830152611f0181611d9d565b9050919050565b60006020820190508181036000830152611f2181611dc0565b9050919050565b60006020820190508181036000830152611f4181611de3565b9050919050565b60006020820190508181036000830152611f6181611e06565b9050919050565b60006020820190508181036000830152611f8181611e29565b9050919050565b6000602082019050611f9d6000830184611e4c565b92915050565b600060a082019050611fb86000830188611e4c565b8181036020830152611fca8187611d41565b9050611fd96040830186611e4c565b611fe66060830185611e4c565b8181036080830152611ff88184611d41565b90509695505050505050565b600061200e61201f565b905061201a828261218f565b919050565b6000604051905090565b600067ffffffffffffffff82111561204457612043612267565b5b61204d82612296565b9050602081019050919050565b600067ffffffffffffffff82111561207557612074612267565b5b61207e82612296565b9050602081019050919050565b600081519050919050565b600082825260208201905092915050565b60006120b2826120f1565b9050919050565b60008115159050919050565b60007fffffffff0000000000000000000000000000000000000000000000000000000082169050919050565b600073ffffffffffffffffffffffffffffffffffffffff82169050919050565b6000819050919050565b82818337600083830152505050565b60005b8381101561214857808201518184015260208101905061212d565b83811115612157576000848401525b50505050565b6000600282049050600182168061217557607f821691505b6020821081141561218957612188612238565b5b50919050565b61219882612296565b810181811067ffffffffffffffff821117156121b7576121b6612267565b5b80604052505050565b60006121cb82612111565b91507fffffffffffffffffffffffffffffffffffffffffffffffffffffffffffffffff8214156121fe576121fd612209565b5b600182019050919050565b7f4e487b7100000000000000000000000000000000000000000000000000000000600052601160045260246000fd5b7f4e487b7100000000000000000000000000000000000000000000000000000000600052602260045260246000fd5b7f4e487b7100000000000000000000000000000000000000000000000000000000600052604160045260246000fd5b6000601f19601f8301169050919050565b7f506572736f6e206e6f742061737369676e656420746f2063726561746520546160008201527f736b730000000000000000000000000000000000000000000000000000000000602082015250565b7f7461736b206e6f7420636f6d706c657465640000000000000000000000000000600082015250565b7f646561646c696e65207061737365640000000000000000000000000000000000600082015250565b7f6e6f7420796f7572207461736b00000000000000000000000000000000000000600082015250565b7f6c65737320726563697069656e74730000000000000000000000000000000000600082015250565b7f6d6f726520726563697069656e74730000000000000000000000000000000000600082015250565b6123cc816120a7565b81146123d757600080fd5b50565b6123e381612111565b81146123ee57600080fd5b5056fea264697066735822122027b78c84823a35b8dea4b52ae17c0f5032d0b6eaac5fdf11cdf000155c16f6c364736f6c63430008030033",
  "immutableReferences": {},
  "source": "pragma solidity ^0.8.3;\r\nimport \"@openzeppelin/contracts/token/ERC721/extensions/IERC721Metadata.sol\";\r\nimport '@openzeppelin/contracts/token/ERC721/utils/ERC721Holder.sol';\r\n\r\ncontract TaskAssign is ERC721Holder{\r\n  address assigner;\r\n\r\n\r\n  constructor (address authPerson){\r\n    assigner = authPerson;\r\n  }\r\n  struct Task {\r\n    uint256 taskNumber;\r\n    string desc;\r\n    uint deadline;\r\n    address[] to;\r\n    uint256 idOfReward;\r\n    string info; //a link to a doc explaining deets\r\n  }\r\n  Task [] public tasks;\r\n  uint256 taskNo;\r\n  mapping (uint256 => Task) public taskList;\r\n  mapping (address => Task) public assignedTasks;\r\n  mapping (address => mapping(uint256 => bool)) public statusOfReports;\r\n\r\n  function assignTaskToOne (string memory descT, uint deadlineT, address toT, string memory infoT, uint256 NFTid) public returns(uint256){\r\n\r\n    require(msg.sender == assigner, 'Person not assigned to create Tasks');\r\n    address[] memory toArr = new address [](1);\r\n    toArr[0]=toT;\r\n    Task memory taskCreated = Task (\r\n      taskNo,\r\n      descT,\r\n      deadlineT,\r\n      toArr,\r\n      NFTid,\r\n      infoT\r\n    );\r\n    tasks.push(taskCreated);\r\n    taskList[taskNo]= taskCreated;\r\n    taskNo++;\r\n    assignedTasks[toT]=taskCreated;\r\n    statusOfReports[toT][taskNo]=false;\r\n    return taskNo;\r\n  }\r\n\r\n  function assignTaskToSeveral(string memory descM, uint deadlineM, address[] calldata toM, string memory infoM, uint256 NFTid) public {\r\n    Task memory taskCreated = Task (\r\n      taskNo,\r\n      descM,\r\n      deadlineM,\r\n      toM,\r\n      NFTid,\r\n      infoM\r\n    );\r\n    tasks.push(taskCreated);\r\n    taskList[taskNo]= taskCreated;\r\n    taskNo++;\r\n    for (uint i =0;i<toM.length ; i++){\r\n      assignedTasks[toM[i]]=taskCreated;\r\n      statusOfReports [ toM[i] ] [taskNo]=false;\r\n    }\r\n  }\r\n\r\n  function reportStatus (uint256 taskno) public {\r\n    Task memory taskUsed = taskList[taskno];\r\n    bool assigned = false;\r\n    for (uint j= 0; j<taskUsed.to.length;j++){\r\n      if (taskUsed.to[j]==msg.sender) {\r\n        assigned= true;\r\n      }\r\n    }\r\n    require(assigned == true , 'not your task');\r\n    require(block.timestamp <= taskUsed.deadline, 'deadline passed');\r\n    for (uint p=0;p<taskUsed.to.length;p++){\r\n      statusOfReports[msg.sender][taskNo]=true;\r\n    }\r\n  }\r\n\r\n  function transferRewardToOne (uint256 NftId, uint256 taskId, address rewardNFT) public {\r\n    require(msg.sender == assigner);\r\n    require(taskList[taskId].to.length == 1, 'more recipients');\r\n    require(statusOfReports[msg.sender][taskId]== true, 'task not completed');\r\n    address recep = taskList[taskId].to[0];\r\n\r\n    IERC721(rewardNFT).transferFrom(address(this), recep, NftId);\r\n  }\r\n\r\n  function transferRewardToSeveral (uint256[] calldata NftIds, address[] calldata receps, uint256 taskId, address rewardNFT) public {\r\n    require(msg.sender == assigner);\r\n    require(taskList[taskId].to.length > 1, 'less recipients');\r\n    for (uint k =0; k<receps.length; k++){\r\n      require( statusOfReports[receps[k]][taskId] == true, 'task not completed');\r\n      IERC721(rewardNFT).transferFrom(address(this),receps[k],NftIds[k]);\r\n    }\r\n  }\r\n\r\n}\r\n//task can only be created by 1 person\r\n//report task completed.\r\n",
  "sourcePath": "C:/Users/Sonika Agarwal/desktop/motify/contracts/taskAssign.sol",
  "compiler": {
    "name": "solc",
    "version": "0.8.3+commit.8d00100c.Emscripten.clang"
  },
  "schemaVersion": "3.4.1",
  "updatedAt": "2022-01-10T18:37:26.037Z",
  "networkType": "ethereum",
  "devdoc": {
    "kind": "dev",
    "methods": {
      "onERC721Received(address,address,uint256,bytes)": {
        "details": "See {IERC721Receiver-onERC721Received}. Always returns `IERC721Receiver.onERC721Received.selector`."
      }
    },
    "version": 1
  },
  "userdoc": {
    "kind": "user",
    "methods": {},
    "version": 1
  }
}