{
  "contractName": "NFT",
  "abi": [
    {
      "inputs": [
        {
          "internalType": "address",
          "name": "officeAddress",
          "type": "address"
        }
      ],
      "stateMutability": "nonpayable",
      "type": "constructor"
    },
    {
      "anonymous": false,
      "inputs": [
        {
          "indexed": true,
          "internalType": "address",
          "name": "owner",
          "type": "address"
        },
        {
          "indexed": true,
          "internalType": "address",
          "name": "approved",
          "type": "address"
        },
        {
          "indexed": true,
          "internalType": "uint256",
          "name": "tokenId",
          "type": "uint256"
        }
      ],
      "name": "Approval",
      "type": "event"
    },
    {
      "anonymous": false,
      "inputs": [
        {
          "indexed": true,
          "internalType": "address",
          "name": "owner",
          "type": "address"
        },
        {
          "indexed": true,
          "internalType": "address",
          "name": "operator",
          "type": "address"
        },
        {
          "indexed": false,
          "internalType": "bool",
          "name": "approved",
          "type": "bool"
        }
      ],
      "name": "ApprovalForAll",
      "type": "event"
    },
    {
      "anonymous": false,
      "inputs": [
        {
          "indexed": true,
          "internalType": "address",
          "name": "from",
          "type": "address"
        },
        {
          "indexed": true,
          "internalType": "address",
          "name": "to",
          "type": "address"
        },
        {
          "indexed": true,
          "internalType": "uint256",
          "name": "tokenId",
          "type": "uint256"
        }
      ],
      "name": "Transfer",
      "type": "event"
    },
    {
      "inputs": [],
      "name": "_tokenIds",
      "outputs": [
        {
          "internalType": "uint256",
          "name": "_value",
          "type": "uint256"
        }
      ],
      "stateMutability": "view",
      "type": "function",
      "constant": true
    },
    {
      "inputs": [
        {
          "internalType": "address",
          "name": "to",
          "type": "address"
        },
        {
          "internalType": "uint256",
          "name": "tokenId",
          "type": "uint256"
        }
      ],
      "name": "approve",
      "outputs": [],
      "stateMutability": "nonpayable",
      "type": "function"
    },
    {
      "inputs": [
        {
          "internalType": "address",
          "name": "owner",
          "type": "address"
        }
      ],
      "name": "balanceOf",
      "outputs": [
        {
          "internalType": "uint256",
          "name": "",
          "type": "uint256"
        }
      ],
      "stateMutability": "view",
      "type": "function",
      "constant": true
    },
    {
      "inputs": [
        {
          "internalType": "uint256",
          "name": "tokenId",
          "type": "uint256"
        }
      ],
      "name": "getApproved",
      "outputs": [
        {
          "internalType": "address",
          "name": "",
          "type": "address"
        }
      ],
      "stateMutability": "view",
      "type": "function",
      "constant": true
    },
    {
      "inputs": [
        {
          "internalType": "address",
          "name": "owner",
          "type": "address"
        },
        {
          "internalType": "address",
          "name": "operator",
          "type": "address"
        }
      ],
      "name": "isApprovedForAll",
      "outputs": [
        {
          "internalType": "bool",
          "name": "",
          "type": "bool"
        }
      ],
      "stateMutability": "view",
      "type": "function",
      "constant": true
    },
    {
      "inputs": [],
      "name": "listingPrice",
      "outputs": [
        {
          "internalType": "uint256",
          "name": "",
          "type": "uint256"
        }
      ],
      "stateMutability": "view",
      "type": "function",
      "constant": true
    },
    {
      "inputs": [],
      "name": "name",
      "outputs": [
        {
          "internalType": "string",
          "name": "",
          "type": "string"
        }
      ],
      "stateMutability": "view",
      "type": "function",
      "constant": true
    },
    {
      "inputs": [
        {
          "internalType": "uint256",
          "name": "tokenId",
          "type": "uint256"
        }
      ],
      "name": "ownerOf",
      "outputs": [
        {
          "internalType": "address",
          "name": "",
          "type": "address"
        }
      ],
      "stateMutability": "view",
      "type": "function",
      "constant": true
    },
    {
      "inputs": [
        {
          "internalType": "address",
          "name": "from",
          "type": "address"
        },
        {
          "internalType": "address",
          "name": "to",
          "type": "address"
        },
        {
          "internalType": "uint256",
          "name": "tokenId",
          "type": "uint256"
        }
      ],
      "name": "safeTransferFrom",
      "outputs": [],
      "stateMutability": "nonpayable",
      "type": "function"
    },
    {
      "inputs": [
        {
          "internalType": "address",
          "name": "from",
          "type": "address"
        },
        {
          "internalType": "address",
          "name": "to",
          "type": "address"
        },
        {
          "internalType": "uint256",
          "name": "tokenId",
          "type": "uint256"
        },
        {
          "internalType": "bytes",
          "name": "_data",
          "type": "bytes"
        }
      ],
      "name": "safeTransferFrom",
      "outputs": [],
      "stateMutability": "nonpayable",
      "type": "function"
    },
    {
      "inputs": [
        {
          "internalType": "address",
          "name": "operator",
          "type": "address"
        },
        {
          "internalType": "bool",
          "name": "approved",
          "type": "bool"
        }
      ],
      "name": "setApprovalForAll",
      "outputs": [],
      "stateMutability": "nonpayable",
      "type": "function"
    },
    {
      "inputs": [
        {
          "internalType": "bytes4",
          "name": "interfaceId",
          "type": "bytes4"
        }
      ],
      "name": "supportsInterface",
      "outputs": [
        {
          "internalType": "bool",
          "name": "",
          "type": "bool"
        }
      ],
      "stateMutability": "view",
      "type": "function",
      "constant": true
    },
    {
      "inputs": [],
      "name": "symbol",
      "outputs": [
        {
          "internalType": "string",
          "name": "",
          "type": "string"
        }
      ],
      "stateMutability": "view",
      "type": "function",
      "constant": true
    },
    {
      "inputs": [
        {
          "internalType": "uint256",
          "name": "tokenId",
          "type": "uint256"
        }
      ],
      "name": "tokenURI",
      "outputs": [
        {
          "internalType": "string",
          "name": "",
          "type": "string"
        }
      ],
      "stateMutability": "view",
      "type": "function",
      "constant": true
    },
    {
      "inputs": [
        {
          "internalType": "address",
          "name": "from",
          "type": "address"
        },
        {
          "internalType": "address",
          "name": "to",
          "type": "address"
        },
        {
          "internalType": "uint256",
          "name": "tokenId",
          "type": "uint256"
        }
      ],
      "name": "transferFrom",
      "outputs": [],
      "stateMutability": "nonpayable",
      "type": "function"
    },
    {
      "inputs": [
        {
          "internalType": "string",
          "name": "tokenURI",
          "type": "string"
        }
      ],
      "name": "createToken",
      "outputs": [
        {
          "internalType": "uint256",
          "name": "",
          "type": "uint256"
        }
      ],
      "stateMutability": "nonpayable",
      "type": "function"
    }
  ],
  "bytecode": "0x60806040526658d15e176280006009553480156200001c57600080fd5b5060405162002ec038038062002ec08339818101604052810190620000429190620001f1565b6040518060400160405280600c81526020017f4d6f7469667920546f6b656e00000000000000000000000000000000000000008152506040518060400160405280600481526020017f4d544659000000000000000000000000000000000000000000000000000000008152508160009080519060200190620000c69291906200012a565b508060019080519060200190620000df9291906200012a565b50505080600860006101000a81548173ffffffffffffffffffffffffffffffffffffffff021916908373ffffffffffffffffffffffffffffffffffffffff16021790555050620002d0565b828054620001389062000251565b90600052602060002090601f0160209004810192826200015c5760008555620001a8565b82601f106200017757805160ff1916838001178555620001a8565b82800160010185558215620001a8579182015b82811115620001a75782518255916020019190600101906200018a565b5b509050620001b79190620001bb565b5090565b5b80821115620001d6576000816000905550600101620001bc565b5090565b600081519050620001eb81620002b6565b92915050565b6000602082840312156200020457600080fd5b60006200021484828501620001da565b91505092915050565b60006200022a8262000231565b9050919050565b600073ffffffffffffffffffffffffffffffffffffffff82169050919050565b600060028204905060018216806200026a57607f821691505b6020821081141562000281576200028062000287565b5b50919050565b7f4e487b7100000000000000000000000000000000000000000000000000000000600052602260045260246000fd5b620002c1816200021d565b8114620002cd57600080fd5b50565b612be080620002e06000396000f3fe608060405234801561001057600080fd5b50600436106101005760003560e01c806370a0823111610097578063b88d4fde11610066578063b88d4fde146102bf578063c78f19f9146102db578063c87b56dd146102f9578063e985e9c51461032957610100565b806370a082311461023757806395d89b4114610267578063a22cb46514610285578063aa46a400146102a157610100565b806323b872dd116100d357806323b872dd1461019f57806342842e0e146101bb57806345576f94146101d75780636352211e1461020757610100565b806301ffc9a71461010557806306fdde0314610135578063081812fc14610153578063095ea7b314610183575b600080fd5b61011f600480360381019061011a9190611c4c565b610359565b60405161012c9190612093565b60405180910390f35b61013d61043b565b60405161014a91906120ae565b60405180910390f35b61016d60048036038101906101689190611cdf565b6104cd565b60405161017a919061202c565b60405180910390f35b61019d60048036038101906101989190611c10565b610552565b005b6101b960048036038101906101b49190611b0a565b61066a565b005b6101d560048036038101906101d09190611b0a565b6106ca565b005b6101f160048036038101906101ec9190611c9e565b6106ea565b6040516101fe91906122d0565b60405180910390f35b610221600480360381019061021c9190611cdf565b610743565b60405161022e919061202c565b60405180910390f35b610251600480360381019061024c9190611aa5565b6107f5565b60405161025e91906122d0565b60405180910390f35b61026f6108ad565b60405161027c91906120ae565b60405180910390f35b61029f600480360381019061029a9190611bd4565b61093f565b005b6102a9610955565b6040516102b691906122d0565b60405180910390f35b6102d960048036038101906102d49190611b59565b610961565b005b6102e36109c3565b6040516102f091906122d0565b60405180910390f35b610313600480360381019061030e9190611cdf565b6109c9565b60405161032091906120ae565b60405180910390f35b610343600480360381019061033e9190611ace565b610b1b565b6040516103509190612093565b60405180910390f35b60007f80ac58cd000000000000000000000000000000000000000000000000000000007bffffffffffffffffffffffffffffffffffffffffffffffffffffffff1916827bffffffffffffffffffffffffffffffffffffffffffffffffffffffff1916148061042457507f5b5e139f000000000000000000000000000000000000000000000000000000007bffffffffffffffffffffffffffffffffffffffffffffffffffffffff1916827bffffffffffffffffffffffffffffffffffffffffffffffffffffffff1916145b80610434575061043382610baf565b5b9050919050565b60606000805461044a90612526565b80601f016020809104026020016040519081016040528092919081815260200182805461047690612526565b80156104c35780601f10610498576101008083540402835291602001916104c3565b820191906000526020600020905b8154815290600101906020018083116104a657829003601f168201915b5050505050905090565b60006104d882610c19565b610517576040517f08c379a000000000000000000000000000000000000000000000000000000000815260040161050e90612230565b60405180910390fd5b6004600083815260200190815260200160002060009054906101000a900473ffffffffffffffffffffffffffffffffffffffff169050919050565b600061055d82610743565b90508073ffffffffffffffffffffffffffffffffffffffff168373ffffffffffffffffffffffffffffffffffffffff1614156105ce576040517f08c379a00000000000000000000000000000000000000000000000000000000081526004016105c590612290565b60405180910390fd5b8073ffffffffffffffffffffffffffffffffffffffff166105ed610c85565b73ffffffffffffffffffffffffffffffffffffffff16148061061c575061061b81610616610c85565b610b1b565b5b61065b576040517f08c379a000000000000000000000000000000000000000000000000000000000815260040161065290612170565b60405180910390fd5b6106658383610c8d565b505050565b61067b610675610c85565b82610d46565b6106ba576040517f08c379a00000000000000000000000000000000000000000000000000000000081526004016106b1906122b0565b60405180910390fd5b6106c5838383610e24565b505050565b6106e583838360405180602001604052806000815250610961565b505050565b60006106f66007611080565b60006107026007611096565b9050610730600860009054906101000a900473ffffffffffffffffffffffffffffffffffffffff16826110a4565b61073a8184611272565b80915050919050565b6000806002600084815260200190815260200160002060009054906101000a900473ffffffffffffffffffffffffffffffffffffffff169050600073ffffffffffffffffffffffffffffffffffffffff168173ffffffffffffffffffffffffffffffffffffffff1614156107ec576040517f08c379a00000000000000000000000000000000000000000000000000000000081526004016107e3906121b0565b60405180910390fd5b80915050919050565b60008073ffffffffffffffffffffffffffffffffffffffff168273ffffffffffffffffffffffffffffffffffffffff161415610866576040517f08c379a000000000000000000000000000000000000000000000000000000000815260040161085d90612190565b60405180910390fd5b600360008373ffffffffffffffffffffffffffffffffffffffff1673ffffffffffffffffffffffffffffffffffffffff168152602001908152602001600020549050919050565b6060600180546108bc90612526565b80601f01602080910402602001604051908101604052809291908181526020018280546108e890612526565b80156109355780601f1061090a57610100808354040283529160200191610935565b820191906000526020600020905b81548152906001019060200180831161091857829003601f168201915b5050505050905090565b61095161094a610c85565b83836112e6565b5050565b60078060000154905081565b61097261096c610c85565b83610d46565b6109b1576040517f08c379a00000000000000000000000000000000000000000000000000000000081526004016109a8906122b0565b60405180910390fd5b6109bd84848484611453565b50505050565b60095481565b60606109d482610c19565b610a13576040517f08c379a0000000000000000000000000000000000000000000000000000000008152600401610a0a90612210565b60405180910390fd5b6000600660008481526020019081526020016000208054610a3390612526565b80601f0160208091040260200160405190810160405280929190818152602001828054610a5f90612526565b8015610aac5780601f10610a8157610100808354040283529160200191610aac565b820191906000526020600020905b815481529060010190602001808311610a8f57829003601f168201915b505050505090506000610abd6114af565b9050600081511415610ad3578192505050610b16565b600082511115610b08578082604051602001610af0929190612008565b60405160208183030381529060405292505050610b16565b610b11846114c6565b925050505b919050565b6000600560008473ffffffffffffffffffffffffffffffffffffffff1673ffffffffffffffffffffffffffffffffffffffff16815260200190815260200160002060008373ffffffffffffffffffffffffffffffffffffffff1673ffffffffffffffffffffffffffffffffffffffff16815260200190815260200160002060009054906101000a900460ff16905092915050565b60007f01ffc9a7000000000000000000000000000000000000000000000000000000007bffffffffffffffffffffffffffffffffffffffffffffffffffffffff1916827bffffffffffffffffffffffffffffffffffffffffffffffffffffffff1916149050919050565b60008073ffffffffffffffffffffffffffffffffffffffff166002600084815260200190815260200160002060009054906101000a900473ffffffffffffffffffffffffffffffffffffffff1673ffffffffffffffffffffffffffffffffffffffff1614159050919050565b600033905090565b816004600083815260200190815260200160002060006101000a81548173ffffffffffffffffffffffffffffffffffffffff021916908373ffffffffffffffffffffffffffffffffffffffff160217905550808273ffffffffffffffffffffffffffffffffffffffff16610d0083610743565b73ffffffffffffffffffffffffffffffffffffffff167f8c5be1e5ebec7d5bd14f71427d1e84f3dd0314c0f7b2291e5b200ac8c7c3b92560405160405180910390a45050565b6000610d5182610c19565b610d90576040517f08c379a0000000000000000000000000000000000000000000000000000000008152600401610d8790612150565b60405180910390fd5b6000610d9b83610743565b90508073ffffffffffffffffffffffffffffffffffffffff168473ffffffffffffffffffffffffffffffffffffffff161480610e0a57508373ffffffffffffffffffffffffffffffffffffffff16610df2846104cd565b73ffffffffffffffffffffffffffffffffffffffff16145b80610e1b5750610e1a8185610b1b565b5b91505092915050565b8273ffffffffffffffffffffffffffffffffffffffff16610e4482610743565b73ffffffffffffffffffffffffffffffffffffffff1614610e9a576040517f08c379a0000000000000000000000000000000000000000000000000000000008152600401610e9190612250565b60405180910390fd5b600073ffffffffffffffffffffffffffffffffffffffff168273ffffffffffffffffffffffffffffffffffffffff161415610f0a576040517f08c379a0000000000000000000000000000000000000000000000000000000008152600401610f0190612110565b60405180910390fd5b610f1583838361156d565b610f20600082610c8d565b6001600360008573ffffffffffffffffffffffffffffffffffffffff1673ffffffffffffffffffffffffffffffffffffffff1681526020019081526020016000206000828254610f70919061243c565b925050819055506001600360008473ffffffffffffffffffffffffffffffffffffffff1673ffffffffffffffffffffffffffffffffffffffff1681526020019081526020016000206000828254610fc791906123b5565b92505081905550816002600083815260200190815260200160002060006101000a81548173ffffffffffffffffffffffffffffffffffffffff021916908373ffffffffffffffffffffffffffffffffffffffff160217905550808273ffffffffffffffffffffffffffffffffffffffff168473ffffffffffffffffffffffffffffffffffffffff167fddf252ad1be2c89b69c2b068fc378daa952ba7f163c4a11628f55a4df523b3ef60405160405180910390a4505050565b6001816000016000828254019250508190555050565b600081600001549050919050565b600073ffffffffffffffffffffffffffffffffffffffff168273ffffffffffffffffffffffffffffffffffffffff161415611114576040517f08c379a000000000000000000000000000000000000000000000000000000000815260040161110b906121f0565b60405180910390fd5b61111d81610c19565b1561115d576040517f08c379a0000000000000000000000000000000000000000000000000000000008152600401611154906120f0565b60405180910390fd5b6111696000838361156d565b6001600360008473ffffffffffffffffffffffffffffffffffffffff1673ffffffffffffffffffffffffffffffffffffffff16815260200190815260200160002060008282546111b991906123b5565b92505081905550816002600083815260200190815260200160002060006101000a81548173ffffffffffffffffffffffffffffffffffffffff021916908373ffffffffffffffffffffffffffffffffffffffff160217905550808273ffffffffffffffffffffffffffffffffffffffff16600073ffffffffffffffffffffffffffffffffffffffff167fddf252ad1be2c89b69c2b068fc378daa952ba7f163c4a11628f55a4df523b3ef60405160405180910390a45050565b61127b82610c19565b6112ba576040517f08c379a00000000000000000000000000000000000000000000000000000000081526004016112b1906121d0565b60405180910390fd5b806006600084815260200190815260200160002090805190602001906112e19291906118c9565b505050565b8173ffffffffffffffffffffffffffffffffffffffff168373ffffffffffffffffffffffffffffffffffffffff161415611355576040517f08c379a000000000000000000000000000000000000000000000000000000000815260040161134c90612130565b60405180910390fd5b80600560008573ffffffffffffffffffffffffffffffffffffffff1673ffffffffffffffffffffffffffffffffffffffff16815260200190815260200160002060008473ffffffffffffffffffffffffffffffffffffffff1673ffffffffffffffffffffffffffffffffffffffff16815260200190815260200160002060006101000a81548160ff0219169083151502179055508173ffffffffffffffffffffffffffffffffffffffff168373ffffffffffffffffffffffffffffffffffffffff167f17307eab39ab6107e8899845ad3d59bd9653f200f220920489ca2b5937696c31836040516114469190612093565b60405180910390a3505050565b61145e848484610e24565b61146a84848484611572565b6114a9576040517f08c379a00000000000000000000000000000000000000000000000000000000081526004016114a0906120d0565b60405180910390fd5b50505050565b606060405180602001604052806000815250905090565b60606114d182610c19565b611510576040517f08c379a000000000000000000000000000000000000000000000000000000000815260040161150790612270565b60405180910390fd5b600061151a6114af565b9050600081511161153a5760405180602001604052806000815250611565565b8061154484611709565b604051602001611555929190612008565b6040516020818303038152906040525b915050919050565b505050565b60006115938473ffffffffffffffffffffffffffffffffffffffff166118b6565b156116fc578373ffffffffffffffffffffffffffffffffffffffff1663150b7a026115bc610c85565b8786866040518563ffffffff1660e01b81526004016115de9493929190612047565b602060405180830381600087803b1580156115f857600080fd5b505af192505050801561162957506040513d601f19601f820116820180604052508101906116269190611c75565b60015b6116ac573d8060008114611659576040519150601f19603f3d011682016040523d82523d6000602084013e61165e565b606091505b506000815114156116a4576040517f08c379a000000000000000000000000000000000000000000000000000000000815260040161169b906120d0565b60405180910390fd5b805181602001fd5b63150b7a0260e01b7bffffffffffffffffffffffffffffffffffffffffffffffffffffffff1916817bffffffffffffffffffffffffffffffffffffffffffffffffffffffff191614915050611701565b600190505b949350505050565b60606000821415611751576040518060400160405280600181526020017f300000000000000000000000000000000000000000000000000000000000000081525090506118b1565b600082905060005b6000821461178357808061176c90612589565b915050600a8261177c919061240b565b9150611759565b60008167ffffffffffffffff8111156117c5577f4e487b7100000000000000000000000000000000000000000000000000000000600052604160045260246000fd5b6040519080825280601f01601f1916602001820160405280156117f75781602001600182028036833780820191505090505b5090505b600085146118aa57600182611810919061243c565b9150600a8561181f91906125d2565b603061182b91906123b5565b60f81b818381518110611867577f4e487b7100000000000000000000000000000000000000000000000000000000600052603260045260246000fd5b60200101907effffffffffffffffffffffffffffffffffffffffffffffffffffffffffffff1916908160001a905350600a856118a3919061240b565b94506117fb565b8093505050505b919050565b600080823b905060008111915050919050565b8280546118d590612526565b90600052602060002090601f0160209004810192826118f7576000855561193e565b82601f1061191057805160ff191683800117855561193e565b8280016001018555821561193e579182015b8281111561193d578251825591602001919060010190611922565b5b50905061194b919061194f565b5090565b5b80821115611968576000816000905550600101611950565b5090565b600061197f61197a84612310565b6122eb565b90508281526020810184848401111561199757600080fd5b6119a28482856124e4565b509392505050565b60006119bd6119b884612341565b6122eb565b9050828152602081018484840111156119d557600080fd5b6119e08482856124e4565b509392505050565b6000813590506119f781612b4e565b92915050565b600081359050611a0c81612b65565b92915050565b600081359050611a2181612b7c565b92915050565b600081519050611a3681612b7c565b92915050565b600082601f830112611a4d57600080fd5b8135611a5d84826020860161196c565b91505092915050565b600082601f830112611a7757600080fd5b8135611a878482602086016119aa565b91505092915050565b600081359050611a9f81612b93565b92915050565b600060208284031215611ab757600080fd5b6000611ac5848285016119e8565b91505092915050565b60008060408385031215611ae157600080fd5b6000611aef858286016119e8565b9250506020611b00858286016119e8565b9150509250929050565b600080600060608486031215611b1f57600080fd5b6000611b2d868287016119e8565b9350506020611b3e868287016119e8565b9250506040611b4f86828701611a90565b9150509250925092565b60008060008060808587031215611b6f57600080fd5b6000611b7d878288016119e8565b9450506020611b8e878288016119e8565b9350506040611b9f87828801611a90565b925050606085013567ffffffffffffffff811115611bbc57600080fd5b611bc887828801611a3c565b91505092959194509250565b60008060408385031215611be757600080fd5b6000611bf5858286016119e8565b9250506020611c06858286016119fd565b9150509250929050565b60008060408385031215611c2357600080fd5b6000611c31858286016119e8565b9250506020611c4285828601611a90565b9150509250929050565b600060208284031215611c5e57600080fd5b6000611c6c84828501611a12565b91505092915050565b600060208284031215611c8757600080fd5b6000611c9584828501611a27565b91505092915050565b600060208284031215611cb057600080fd5b600082013567ffffffffffffffff811115611cca57600080fd5b611cd684828501611a66565b91505092915050565b600060208284031215611cf157600080fd5b6000611cff84828501611a90565b91505092915050565b611d1181612470565b82525050565b611d2081612482565b82525050565b6000611d3182612372565b611d3b8185612388565b9350611d4b8185602086016124f3565b611d54816126bf565b840191505092915050565b6000611d6a8261237d565b611d748185612399565b9350611d848185602086016124f3565b611d8d816126bf565b840191505092915050565b6000611da38261237d565b611dad81856123aa565b9350611dbd8185602086016124f3565b80840191505092915050565b6000611dd6603283612399565b9150611de1826126d0565b604082019050919050565b6000611df9601c83612399565b9150611e048261271f565b602082019050919050565b6000611e1c602483612399565b9150611e2782612748565b604082019050919050565b6000611e3f601983612399565b9150611e4a82612797565b602082019050919050565b6000611e62602c83612399565b9150611e6d826127c0565b604082019050919050565b6000611e85603883612399565b9150611e908261280f565b604082019050919050565b6000611ea8602a83612399565b9150611eb38261285e565b604082019050919050565b6000611ecb602983612399565b9150611ed6826128ad565b604082019050919050565b6000611eee602e83612399565b9150611ef9826128fc565b604082019050919050565b6000611f11602083612399565b9150611f1c8261294b565b602082019050919050565b6000611f34603183612399565b9150611f3f82612974565b604082019050919050565b6000611f57602c83612399565b9150611f62826129c3565b604082019050919050565b6000611f7a602983612399565b9150611f8582612a12565b604082019050919050565b6000611f9d602f83612399565b9150611fa882612a61565b604082019050919050565b6000611fc0602183612399565b9150611fcb82612ab0565b604082019050919050565b6000611fe3603183612399565b9150611fee82612aff565b604082019050919050565b612002816124da565b82525050565b60006120148285611d98565b91506120208284611d98565b91508190509392505050565b60006020820190506120416000830184611d08565b92915050565b600060808201905061205c6000830187611d08565b6120696020830186611d08565b6120766040830185611ff9565b81810360608301526120888184611d26565b905095945050505050565b60006020820190506120a86000830184611d17565b92915050565b600060208201905081810360008301526120c88184611d5f565b905092915050565b600060208201905081810360008301526120e981611dc9565b9050919050565b6000602082019050818103600083015261210981611dec565b9050919050565b6000602082019050818103600083015261212981611e0f565b9050919050565b6000602082019050818103600083015261214981611e32565b9050919050565b6000602082019050818103600083015261216981611e55565b9050919050565b6000602082019050818103600083015261218981611e78565b9050919050565b600060208201905081810360008301526121a981611e9b565b9050919050565b600060208201905081810360008301526121c981611ebe565b9050919050565b600060208201905081810360008301526121e981611ee1565b9050919050565b6000602082019050818103600083015261220981611f04565b9050919050565b6000602082019050818103600083015261222981611f27565b9050919050565b6000602082019050818103600083015261224981611f4a565b9050919050565b6000602082019050818103600083015261226981611f6d565b9050919050565b6000602082019050818103600083015261228981611f90565b9050919050565b600060208201905081810360008301526122a981611fb3565b9050919050565b600060208201905081810360008301526122c981611fd6565b9050919050565b60006020820190506122e56000830184611ff9565b92915050565b60006122f5612306565b90506123018282612558565b919050565b6000604051905090565b600067ffffffffffffffff82111561232b5761232a612690565b5b612334826126bf565b9050602081019050919050565b600067ffffffffffffffff82111561235c5761235b612690565b5b612365826126bf565b9050602081019050919050565b600081519050919050565b600081519050919050565b600082825260208201905092915050565b600082825260208201905092915050565b600081905092915050565b60006123c0826124da565b91506123cb836124da565b9250827fffffffffffffffffffffffffffffffffffffffffffffffffffffffffffffffff03821115612400576123ff612603565b5b828201905092915050565b6000612416826124da565b9150612421836124da565b92508261243157612430612632565b5b828204905092915050565b6000612447826124da565b9150612452836124da565b92508282101561246557612464612603565b5b828203905092915050565b600061247b826124ba565b9050919050565b60008115159050919050565b60007fffffffff0000000000000000000000000000000000000000000000000000000082169050919050565b600073ffffffffffffffffffffffffffffffffffffffff82169050919050565b6000819050919050565b82818337600083830152505050565b60005b838110156125115780820151818401526020810190506124f6565b83811115612520576000848401525b50505050565b6000600282049050600182168061253e57607f821691505b6020821081141561255257612551612661565b5b50919050565b612561826126bf565b810181811067ffffffffffffffff821117156125805761257f612690565b5b80604052505050565b6000612594826124da565b91507fffffffffffffffffffffffffffffffffffffffffffffffffffffffffffffffff8214156125c7576125c6612603565b5b600182019050919050565b60006125dd826124da565b91506125e8836124da565b9250826125f8576125f7612632565b5b828206905092915050565b7f4e487b7100000000000000000000000000000000000000000000000000000000600052601160045260246000fd5b7f4e487b7100000000000000000000000000000000000000000000000000000000600052601260045260246000fd5b7f4e487b7100000000000000000000000000000000000000000000000000000000600052602260045260246000fd5b7f4e487b7100000000000000000000000000000000000000000000000000000000600052604160045260246000fd5b6000601f19601f8301169050919050565b7f4552433732313a207472616e7366657220746f206e6f6e20455243373231526560008201527f63656976657220696d706c656d656e7465720000000000000000000000000000602082015250565b7f4552433732313a20746f6b656e20616c7265616479206d696e74656400000000600082015250565b7f4552433732313a207472616e7366657220746f20746865207a65726f2061646460008201527f7265737300000000000000000000000000000000000000000000000000000000602082015250565b7f4552433732313a20617070726f766520746f2063616c6c657200000000000000600082015250565b7f4552433732313a206f70657261746f7220717565727920666f72206e6f6e657860008201527f697374656e7420746f6b656e0000000000000000000000000000000000000000602082015250565b7f4552433732313a20617070726f76652063616c6c6572206973206e6f74206f7760008201527f6e6572206e6f7220617070726f76656420666f7220616c6c0000000000000000602082015250565b7f4552433732313a2062616c616e636520717565727920666f7220746865207a6560008201527f726f206164647265737300000000000000000000000000000000000000000000602082015250565b7f4552433732313a206f776e657220717565727920666f72206e6f6e657869737460008201527f656e7420746f6b656e0000000000000000000000000000000000000000000000602082015250565b7f45524337323155524953746f726167653a2055524920736574206f66206e6f6e60008201527f6578697374656e7420746f6b656e000000000000000000000000000000000000602082015250565b7f4552433732313a206d696e7420746f20746865207a65726f2061646472657373600082015250565b7f45524337323155524953746f726167653a2055524920717565727920666f722060008201527f6e6f6e6578697374656e7420746f6b656e000000000000000000000000000000602082015250565b7f4552433732313a20617070726f76656420717565727920666f72206e6f6e657860008201527f697374656e7420746f6b656e0000000000000000000000000000000000000000602082015250565b7f4552433732313a207472616e73666572206f6620746f6b656e2074686174206960008201527f73206e6f74206f776e0000000000000000000000000000000000000000000000602082015250565b7f4552433732314d657461646174613a2055524920717565727920666f72206e6f60008201527f6e6578697374656e7420746f6b656e0000000000000000000000000000000000602082015250565b7f4552433732313a20617070726f76616c20746f2063757272656e74206f776e6560008201527f7200000000000000000000000000000000000000000000000000000000000000602082015250565b7f4552433732313a207472616e736665722063616c6c6572206973206e6f74206f60008201527f776e6572206e6f7220617070726f766564000000000000000000000000000000602082015250565b612b5781612470565b8114612b6257600080fd5b50565b612b6e81612482565b8114612b7957600080fd5b50565b612b858161248e565b8114612b9057600080fd5b50565b612b9c816124da565b8114612ba757600080fd5b5056fea2646970667358221220ce7fcebd6beae6a7a71e793c5bd7b57987686a0330eb6f6b309353de7c9c06cf64736f6c63430008030033",
  "immutableReferences": {},
  "source": "pragma solidity ^0.8.3;\r\n\r\nimport \"@openzeppelin/contracts/utils/Counters.sol\";\r\nimport \"@openzeppelin/contracts/token/ERC721/extensions/ERC721URIStorage.sol\";\r\nimport \"@openzeppelin/contracts/token/ERC721/ERC721.sol\";\r\nimport \"@openzeppelin/contracts/token/ERC721/IERC721.sol\";\r\n\r\ncontract NFT is ERC721URIStorage {\r\n  using Counters for Counters.Counter;\r\n  Counters.Counter public _tokenIds;\r\n  address contractAddress;\r\n  uint256 public listingPrice = 0.025 ether;\r\n\r\n  constructor(address officeAddress) ERC721(\"Motify Token\", \"MTFY\") {\r\n      contractAddress = officeAddress;\r\n  }\r\n\r\n  function createToken(string memory tokenURI) public returns (uint) {\r\n      _tokenIds.increment();\r\n      uint256 newItemId = _tokenIds.current();\r\n      _mint(contractAddress, newItemId);\r\n      _setTokenURI(newItemId, tokenURI);\r\n      return newItemId;\r\n    }\r\n\r\n}\r\n",
  "sourcePath": "C:/Users/Sonika Agarwal/desktop/motify/contracts/NFT.sol",
  "compiler": {
    "name": "solc",
    "version": "0.8.3+commit.8d00100c.Emscripten.clang"
  },
  "schemaVersion": "3.4.1",
  "updatedAt": "2022-01-10T18:37:26.019Z",
  "networkType": "ethereum",
  "devdoc": {
    "kind": "dev",
    "methods": {
      "approve(address,uint256)": {
        "details": "See {IERC721-approve}."
      },
      "balanceOf(address)": {
        "details": "See {IERC721-balanceOf}."
      },
      "getApproved(uint256)": {
        "details": "See {IERC721-getApproved}."
      },
      "isApprovedForAll(address,address)": {
        "details": "See {IERC721-isApprovedForAll}."
      },
      "name()": {
        "details": "See {IERC721Metadata-name}."
      },
      "ownerOf(uint256)": {
        "details": "See {IERC721-ownerOf}."
      },
      "safeTransferFrom(address,address,uint256)": {
        "details": "See {IERC721-safeTransferFrom}."
      },
      "safeTransferFrom(address,address,uint256,bytes)": {
        "details": "See {IERC721-safeTransferFrom}."
      },
      "setApprovalForAll(address,bool)": {
        "details": "See {IERC721-setApprovalForAll}."
      },
      "supportsInterface(bytes4)": {
        "details": "See {IERC165-supportsInterface}."
      },
      "symbol()": {
        "details": "See {IERC721Metadata-symbol}."
      },
      "tokenURI(uint256)": {
        "details": "See {IERC721Metadata-tokenURI}."
      },
      "transferFrom(address,address,uint256)": {
        "details": "See {IERC721-transferFrom}."
      }
    },
    "version": 1
  },
  "userdoc": {
    "kind": "user",
    "methods": {},
    "version": 1
  }
}