{
  "contractName": "TaskAssign",
  "abi": [
    {
      "inputs": [
        {
          "internalType": "address",
          "name": "authPerson",
          "type": "address"
        }
      ],
      "stateMutability": "nonpayable",
      "type": "constructor"
    },
    {
      "inputs": [
        {
          "internalType": "address",
          "name": "",
          "type": "address"
        },
        {
          "internalType": "uint256",
          "name": "",
          "type": "uint256"
        }
      ],
      "name": "assignedTasks",
      "outputs": [
        {
          "internalType": "uint256",
          "name": "taskNumber",
          "type": "uint256"
        },
        {
          "internalType": "string",
          "name": "desc",
          "type": "string"
        },
        {
          "internalType": "string",
          "name": "topic",
          "type": "string"
        },
        {
          "internalType": "uint256",
          "name": "deadline",
          "type": "uint256"
        },
        {
          "internalType": "address",
          "name": "to",
          "type": "address"
        },
        {
          "internalType": "uint256",
          "name": "idOfReward",
          "type": "uint256"
        },
        {
          "internalType": "string",
          "name": "info",
          "type": "string"
        },
        {
          "internalType": "bool",
          "name": "status",
          "type": "bool"
        }
      ],
      "stateMutability": "view",
      "type": "function"
    },
    {
      "inputs": [
        {
          "internalType": "address",
          "name": "",
          "type": "address"
        }
      ],
      "name": "assignedTasksNo",
      "outputs": [
        {
          "internalType": "uint256",
          "name": "",
          "type": "uint256"
        }
      ],
      "stateMutability": "view",
      "type": "function"
    },
    {
      "inputs": [
        {
          "internalType": "address",
          "name": "",
          "type": "address"
        },
        {
          "internalType": "address",
          "name": "",
          "type": "address"
        },
        {
          "internalType": "uint256",
          "name": "",
          "type": "uint256"
        },
        {
          "internalType": "bytes",
          "name": "",
          "type": "bytes"
        }
      ],
      "name": "onERC721Received",
      "outputs": [
        {
          "internalType": "bytes4",
          "name": "",
          "type": "bytes4"
        }
      ],
      "stateMutability": "nonpayable",
      "type": "function"
    },
    {
      "inputs": [
        {
          "internalType": "address",
          "name": "",
          "type": "address"
        },
        {
          "internalType": "uint256",
          "name": "",
          "type": "uint256"
        }
      ],
      "name": "statusOfReports",
      "outputs": [
        {
          "internalType": "bool",
          "name": "",
          "type": "bool"
        }
      ],
      "stateMutability": "view",
      "type": "function"
    },
    {
      "inputs": [
        {
          "internalType": "uint256",
          "name": "",
          "type": "uint256"
        }
      ],
      "name": "taskList",
      "outputs": [
        {
          "internalType": "uint256",
          "name": "taskNumber",
          "type": "uint256"
        },
        {
          "internalType": "string",
          "name": "desc",
          "type": "string"
        },
        {
          "internalType": "string",
          "name": "topic",
          "type": "string"
        },
        {
          "internalType": "uint256",
          "name": "deadline",
          "type": "uint256"
        },
        {
          "internalType": "address",
          "name": "to",
          "type": "address"
        },
        {
          "internalType": "uint256",
          "name": "idOfReward",
          "type": "uint256"
        },
        {
          "internalType": "string",
          "name": "info",
          "type": "string"
        },
        {
          "internalType": "bool",
          "name": "status",
          "type": "bool"
        }
      ],
      "stateMutability": "view",
      "type": "function"
    },
    {
      "inputs": [],
      "name": "taskNo",
      "outputs": [
        {
          "internalType": "uint256",
          "name": "",
          "type": "uint256"
        }
      ],
      "stateMutability": "view",
      "type": "function"
    },
    {
      "inputs": [
        {
          "internalType": "uint256",
          "name": "",
          "type": "uint256"
        }
      ],
      "name": "tasks",
      "outputs": [
        {
          "internalType": "uint256",
          "name": "taskNumber",
          "type": "uint256"
        },
        {
          "internalType": "string",
          "name": "desc",
          "type": "string"
        },
        {
          "internalType": "string",
          "name": "topic",
          "type": "string"
        },
        {
          "internalType": "uint256",
          "name": "deadline",
          "type": "uint256"
        },
        {
          "internalType": "address",
          "name": "to",
          "type": "address"
        },
        {
          "internalType": "uint256",
          "name": "idOfReward",
          "type": "uint256"
        },
        {
          "internalType": "string",
          "name": "info",
          "type": "string"
        },
        {
          "internalType": "bool",
          "name": "status",
          "type": "bool"
        }
      ],
      "stateMutability": "view",
      "type": "function"
    },
    {
      "inputs": [
        {
          "internalType": "string",
          "name": "descT",
          "type": "string"
        },
        {
          "internalType": "string",
          "name": "topicT",
          "type": "string"
        },
        {
          "internalType": "uint256",
          "name": "deadlineT",
          "type": "uint256"
        },
        {
          "internalType": "address",
          "name": "toT",
          "type": "address"
        },
        {
          "internalType": "string",
          "name": "infoT",
          "type": "string"
        },
        {
          "internalType": "uint256",
          "name": "NFTid",
          "type": "uint256"
        }
      ],
      "name": "assignTaskToOne",
      "outputs": [
        {
          "internalType": "uint256",
          "name": "",
          "type": "uint256"
        }
      ],
      "stateMutability": "nonpayable",
      "type": "function"
    },
    {
      "inputs": [
        {
          "internalType": "uint256",
          "name": "taskno",
          "type": "uint256"
        },
        {
          "internalType": "address",
          "name": "to",
          "type": "address"
        }
      ],
      "name": "reportStatus",
      "outputs": [],
      "stateMutability": "nonpayable",
      "type": "function"
    },
    {
      "inputs": [
        {
          "internalType": "uint256",
          "name": "taskno",
          "type": "uint256"
        }
      ],
      "name": "getStatus",
      "outputs": [
        {
          "internalType": "bool",
          "name": "",
          "type": "bool"
        }
      ],
      "stateMutability": "view",
      "type": "function"
    },
    {
      "inputs": [
        {
          "internalType": "uint256",
          "name": "NftId",
          "type": "uint256"
        },
        {
          "internalType": "uint256",
          "name": "taskId",
          "type": "uint256"
        },
        {
          "internalType": "address",
          "name": "rewardNFT",
          "type": "address"
        }
      ],
      "name": "transferRewardToOne",
      "outputs": [],
      "stateMutability": "nonpayable",
      "type": "function"
    },
    {
      "inputs": [],
      "name": "fetchTasksCreated",
      "outputs": [
        {
          "components": [
            {
              "internalType": "uint256",
              "name": "taskNumber",
              "type": "uint256"
            },
            {
              "internalType": "string",
              "name": "desc",
              "type": "string"
            },
            {
              "internalType": "string",
              "name": "topic",
              "type": "string"
            },
            {
              "internalType": "uint256",
              "name": "deadline",
              "type": "uint256"
            },
            {
              "internalType": "address",
              "name": "to",
              "type": "address"
            },
            {
              "internalType": "uint256",
              "name": "idOfReward",
              "type": "uint256"
            },
            {
              "internalType": "string",
              "name": "info",
              "type": "string"
            },
            {
              "internalType": "bool",
              "name": "status",
              "type": "bool"
            }
          ],
          "internalType": "struct TaskAssign.Task[]",
          "name": "",
          "type": "tuple[]"
        }
      ],
      "stateMutability": "view",
      "type": "function"
    }
  ],
  "bytecode": "0x60806040523480156200001157600080fd5b5060405162001f6838038062001f68833981810160405281019062000037919062000095565b806000806101000a81548173ffffffffffffffffffffffffffffffffffffffff021916908373ffffffffffffffffffffffffffffffffffffffff160217905550506200010f565b6000815190506200008f81620000f5565b92915050565b600060208284031215620000a857600080fd5b6000620000b8848285016200007e565b91505092915050565b6000620000ce82620000d5565b9050919050565b600073ffffffffffffffffffffffffffffffffffffffff82169050919050565b6200010081620000c1565b81146200010c57600080fd5b50565b611e49806200011f6000396000f3fe608060405234801561001057600080fd5b50600436106100b45760003560e01c806388eb60bb1161007157806388eb60bb146101ce5780638d977672146101fe578063c135ea4214610235578063d4393de814610251578063deaa9dea1461026f578063fece3210146102a6576100b4565b8063150b7a02146100b957806328cdf6a2146100e95780632a1c52a5146101195780635290205f146101505780635c622a0e1461018057806378521594146101b0575b600080fd5b6100d360048036038101906100ce91906114cb565b6102c2565b6040516100e091906119c0565b60405180910390f35b61010360048036038101906100fe9190611546565b6102d6565b60405161011091906119a5565b60405180910390f35b610133600480360381019061012e9190611653565b610305565b604051610147989796959493929190611a16565b60405180910390f35b61016a60048036038101906101659190611582565b610512565b60405161017791906119fb565b60405180910390f35b61019a60048036038101906101959190611653565b610a2a565b6040516101a791906119a5565b60405180910390f35b6101b8610a57565b6040516101c59190611983565b60405180910390f35b6101e860048036038101906101e391906114a2565b610cfc565b6040516101f591906119fb565b60405180910390f35b61021860048036038101906102139190611653565b610d14565b60405161022c989796959493929190611a16565b60405180910390f35b61024f600480360381019061024a91906116b8565b610f31565b005b610259611039565b60405161026691906119fb565b60405180910390f35b61028960048036038101906102849190611546565b61103f565b60405161029d989796959493929190611a16565b60405180910390f35b6102c060048036038101906102bb919061167c565b611269565b005b600063150b7a0260e01b9050949350505050565b60066020528160005260406000206020528060005260406000206000915091509054906101000a900460ff1681565b600360205280600052604060002060009150905080600001549080600101805461032e90611c4c565b80601f016020809104026020016040519081016040528092919081815260200182805461035a90611c4c565b80156103a75780601f1061037c576101008083540402835291602001916103a7565b820191906000526020600020905b81548152906001019060200180831161038a57829003601f168201915b5050505050908060020180546103bc90611c4c565b80601f01602080910402602001604051908101604052809291908181526020018280546103e890611c4c565b80156104355780601f1061040a57610100808354040283529160200191610435565b820191906000526020600020905b81548152906001019060200180831161041857829003601f168201915b5050505050908060030154908060040160009054906101000a900473ffffffffffffffffffffffffffffffffffffffff169080600501549080600601805461047c90611c4c565b80601f01602080910402602001604051908101604052809291908181526020018280546104a890611c4c565b80156104f55780601f106104ca576101008083540402835291602001916104f5565b820191906000526020600020905b8154815290600101906020018083116104d857829003601f168201915b5050505050908060070160009054906101000a900460ff16905088565b60008060009054906101000a900473ffffffffffffffffffffffffffffffffffffffff1673ffffffffffffffffffffffffffffffffffffffff163373ffffffffffffffffffffffffffffffffffffffff16146105a3576040517f08c379a000000000000000000000000000000000000000000000000000000000815260040161059a906119db565b60405180910390fd5b600060405180610100016040528060025481526020018981526020018881526020018781526020018673ffffffffffffffffffffffffffffffffffffffff168152602001848152602001858152602001600015158152509050600181908060018154018082558091505060019003906000526020600020906008020160009091909190915060008201518160000155602082015181600101908051906020019061064e929190611305565b50604082015181600201908051906020019061066b929190611305565b506060820151816003015560808201518160040160006101000a81548173ffffffffffffffffffffffffffffffffffffffff021916908373ffffffffffffffffffffffffffffffffffffffff16021790555060a0820151816005015560c08201518160060190805190602001906106e3929190611305565b5060e08201518160070160006101000a81548160ff021916908315150217905550505080600360006002548152602001908152602001600020600082015181600001556020820151816001019080519060200190610742929190611305565b50604082015181600201908051906020019061075f929190611305565b506060820151816003015560808201518160040160006101000a81548173ffffffffffffffffffffffffffffffffffffffff021916908373ffffffffffffffffffffffffffffffffffffffff16021790555060a0820151816005015560c08201518160060190805190602001906107d7929190611305565b5060e08201518160070160006101000a81548160ff0219169083151502179055509050506002600081548092919061080e90611caf565b9190505550600560008673ffffffffffffffffffffffffffffffffffffffff1673ffffffffffffffffffffffffffffffffffffffff168152602001908152602001600020600081548092919061086390611caf565b9190505550600460008673ffffffffffffffffffffffffffffffffffffffff1673ffffffffffffffffffffffffffffffffffffffff1681526020019081526020016000208190806001815401808255809150506001900390600052602060002090600802016000909190919091506000820151816000015560208201518160010190805190602001906108f7929190611305565b506040820151816002019080519060200190610914929190611305565b506060820151816003015560808201518160040160006101000a81548173ffffffffffffffffffffffffffffffffffffffff021916908373ffffffffffffffffffffffffffffffffffffffff16021790555060a0820151816005015560c082015181600601908051906020019061098c929190611305565b5060e08201518160070160006101000a81548160ff02191690831515021790555050506000600660008773ffffffffffffffffffffffffffffffffffffffff1673ffffffffffffffffffffffffffffffffffffffff1681526020019081526020016000206000600254815260200190815260200160002060006101000a81548160ff0219169083151502179055506002549150509695505050505050565b60006003600083815260200190815260200160002060070160009054906101000a900460ff169050919050565b60606001805480602002602001604051908101604052809291908181526020016000905b82821015610cf357838290600052602060002090600802016040518061010001604052908160008201548152602001600182018054610ab990611c4c565b80601f0160208091040260200160405190810160405280929190818152602001828054610ae590611c4c565b8015610b325780601f10610b0757610100808354040283529160200191610b32565b820191906000526020600020905b815481529060010190602001808311610b1557829003601f168201915b50505050508152602001600282018054610b4b90611c4c565b80601f0160208091040260200160405190810160405280929190818152602001828054610b7790611c4c565b8015610bc45780601f10610b9957610100808354040283529160200191610bc4565b820191906000526020600020905b815481529060010190602001808311610ba757829003601f168201915b50505050508152602001600382015481526020016004820160009054906101000a900473ffffffffffffffffffffffffffffffffffffffff1673ffffffffffffffffffffffffffffffffffffffff1673ffffffffffffffffffffffffffffffffffffffff16815260200160058201548152602001600682018054610c4790611c4c565b80601f0160208091040260200160405190810160405280929190818152602001828054610c7390611c4c565b8015610cc05780601f10610c9557610100808354040283529160200191610cc0565b820191906000526020600020905b815481529060010190602001808311610ca357829003601f168201915b505050505081526020016007820160009054906101000a900460ff16151515158152505081526020019060010190610a7b565b50505050905090565b60056020528060005260406000206000915090505481565b60018181548110610d2457600080fd5b9060005260206000209060080201600091509050806000015490806001018054610d4d90611c4c565b80601f0160208091040260200160405190810160405280929190818152602001828054610d7990611c4c565b8015610dc65780601f10610d9b57610100808354040283529160200191610dc6565b820191906000526020600020905b815481529060010190602001808311610da957829003601f168201915b505050505090806002018054610ddb90611c4c565b80601f0160208091040260200160405190810160405280929190818152602001828054610e0790611c4c565b8015610e545780601f10610e2957610100808354040283529160200191610e54565b820191906000526020600020905b815481529060010190602001808311610e3757829003601f168201915b5050505050908060030154908060040160009054906101000a900473ffffffffffffffffffffffffffffffffffffffff1690806005015490806006018054610e9b90611c4c565b80601f0160208091040260200160405190810160405280929190818152602001828054610ec790611c4c565b8015610f145780601f10610ee957610100808354040283529160200191610f14565b820191906000526020600020905b815481529060010190602001808311610ef757829003601f168201915b5050505050908060070160009054906101000a900460ff16905088565b60008054906101000a900473ffffffffffffffffffffffffffffffffffffffff1673ffffffffffffffffffffffffffffffffffffffff163373ffffffffffffffffffffffffffffffffffffffff1614610f8957600080fd5b60006003600084815260200190815260200160002060040160009054906101000a900473ffffffffffffffffffffffffffffffffffffffff1690508173ffffffffffffffffffffffffffffffffffffffff166323b872dd3083876040518463ffffffff1660e01b81526004016110019392919061194c565b600060405180830381600087803b15801561101b57600080fd5b505af115801561102f573d6000803e3d6000fd5b5050505050505050565b60025481565b6004602052816000526040600020818154811061105b57600080fd5b90600052602060002090600802016000915091505080600001549080600101805461108590611c4c565b80601f01602080910402602001604051908101604052809291908181526020018280546110b190611c4c565b80156110fe5780601f106110d3576101008083540402835291602001916110fe565b820191906000526020600020905b8154815290600101906020018083116110e157829003601f168201915b50505050509080600201805461111390611c4c565b80601f016020809104026020016040519081016040528092919081815260200182805461113f90611c4c565b801561118c5780601f106111615761010080835404028352916020019161118c565b820191906000526020600020905b81548152906001019060200180831161116f57829003601f168201915b5050505050908060030154908060040160009054906101000a900473ffffffffffffffffffffffffffffffffffffffff16908060050154908060060180546111d390611c4c565b80601f01602080910402602001604051908101604052809291908181526020018280546111ff90611c4c565b801561124c5780601f106112215761010080835404028352916020019161124c565b820191906000526020600020905b81548152906001019060200180831161122f57829003601f168201915b5050505050908060070160009054906101000a900460ff16905088565b60016003600084815260200190815260200160002060070160006101000a81548160ff0219169083151502179055506001600660008373ffffffffffffffffffffffffffffffffffffffff1673ffffffffffffffffffffffffffffffffffffffff168152602001908152602001600020600084815260200190815260200160002060006101000a81548160ff0219169083151502179055505050565b82805461131190611c4c565b90600052602060002090601f016020900481019282611333576000855561137a565b82601f1061134c57805160ff191683800117855561137a565b8280016001018555821561137a579182015b8281111561137957825182559160200191906001019061135e565b5b509050611387919061138b565b5090565b5b808211156113a457600081600090555060010161138c565b5090565b60006113bb6113b684611ace565b611aa9565b9050828152602081018484840111156113d357600080fd5b6113de848285611c0a565b509392505050565b60006113f96113f484611aff565b611aa9565b90508281526020810184848401111561141157600080fd5b61141c848285611c0a565b509392505050565b60008135905061143381611de5565b92915050565b600082601f83011261144a57600080fd5b813561145a8482602086016113a8565b91505092915050565b600082601f83011261147457600080fd5b81356114848482602086016113e6565b91505092915050565b60008135905061149c81611dfc565b92915050565b6000602082840312156114b457600080fd5b60006114c284828501611424565b91505092915050565b600080600080608085870312156114e157600080fd5b60006114ef87828801611424565b945050602061150087828801611424565b93505060406115118782880161148d565b925050606085013567ffffffffffffffff81111561152e57600080fd5b61153a87828801611439565b91505092959194509250565b6000806040838503121561155957600080fd5b600061156785828601611424565b92505060206115788582860161148d565b9150509250929050565b60008060008060008060c0878903121561159b57600080fd5b600087013567ffffffffffffffff8111156115b557600080fd5b6115c189828a01611463565b965050602087013567ffffffffffffffff8111156115de57600080fd5b6115ea89828a01611463565b95505060406115fb89828a0161148d565b945050606061160c89828a01611424565b935050608087013567ffffffffffffffff81111561162957600080fd5b61163589828a01611463565b92505060a061164689828a0161148d565b9150509295509295509295565b60006020828403121561166557600080fd5b60006116738482850161148d565b91505092915050565b6000806040838503121561168f57600080fd5b600061169d8582860161148d565b92505060206116ae85828601611424565b9150509250929050565b6000806000606084860312156116cd57600080fd5b60006116db8682870161148d565b93505060206116ec8682870161148d565b92505060406116fd86828701611424565b9150509250925092565b60006117138383611870565b905092915050565b61172481611b96565b82525050565b61173381611b96565b82525050565b600061174482611b40565b61174e8185611b63565b93508360208202850161176085611b30565b8060005b8581101561179c578484038952815161177d8582611707565b945061178883611b56565b925060208a01995050600181019050611764565b50829750879550505050505092915050565b6117b781611ba8565b82525050565b6117c681611ba8565b82525050565b6117d581611bb4565b82525050565b60006117e682611b4b565b6117f08185611b74565b9350611800818560208601611c19565b61180981611d85565b840191505092915050565b600061181f82611b4b565b6118298185611b85565b9350611839818560208601611c19565b61184281611d85565b840191505092915050565b600061185a602383611b85565b915061186582611d96565b604082019050919050565b600061010083016000830151611889600086018261192e565b50602083015184820360208601526118a182826117db565b915050604083015184820360408601526118bb82826117db565b91505060608301516118d0606086018261192e565b5060808301516118e3608086018261171b565b5060a08301516118f660a086018261192e565b5060c083015184820360c086015261190e82826117db565b91505060e083015161192360e08601826117ae565b508091505092915050565b61193781611c00565b82525050565b61194681611c00565b82525050565b6000606082019050611961600083018661172a565b61196e602083018561172a565b61197b604083018461193d565b949350505050565b6000602082019050818103600083015261199d8184611739565b905092915050565b60006020820190506119ba60008301846117bd565b92915050565b60006020820190506119d560008301846117cc565b92915050565b600060208201905081810360008301526119f48161184d565b9050919050565b6000602082019050611a10600083018461193d565b92915050565b600061010082019050611a2c600083018b61193d565b8181036020830152611a3e818a611814565b90508181036040830152611a528189611814565b9050611a61606083018861193d565b611a6e608083018761172a565b611a7b60a083018661193d565b81810360c0830152611a8d8185611814565b9050611a9c60e08301846117bd565b9998505050505050505050565b6000611ab3611ac4565b9050611abf8282611c7e565b919050565b6000604051905090565b600067ffffffffffffffff821115611ae957611ae8611d56565b5b611af282611d85565b9050602081019050919050565b600067ffffffffffffffff821115611b1a57611b19611d56565b5b611b2382611d85565b9050602081019050919050565b6000819050602082019050919050565b600081519050919050565b600081519050919050565b6000602082019050919050565b600082825260208201905092915050565b600082825260208201905092915050565b600082825260208201905092915050565b6000611ba182611be0565b9050919050565b60008115159050919050565b60007fffffffff0000000000000000000000000000000000000000000000000000000082169050919050565b600073ffffffffffffffffffffffffffffffffffffffff82169050919050565b6000819050919050565b82818337600083830152505050565b60005b83811015611c37578082015181840152602081019050611c1c565b83811115611c46576000848401525b50505050565b60006002820490506001821680611c6457607f821691505b60208210811415611c7857611c77611d27565b5b50919050565b611c8782611d85565b810181811067ffffffffffffffff82111715611ca657611ca5611d56565b5b80604052505050565b6000611cba82611c00565b91507fffffffffffffffffffffffffffffffffffffffffffffffffffffffffffffffff821415611ced57611cec611cf8565b5b600182019050919050565b7f4e487b7100000000000000000000000000000000000000000000000000000000600052601160045260246000fd5b7f4e487b7100000000000000000000000000000000000000000000000000000000600052602260045260246000fd5b7f4e487b7100000000000000000000000000000000000000000000000000000000600052604160045260246000fd5b6000601f19601f8301169050919050565b7f506572736f6e206e6f742061737369676e656420746f2063726561746520546160008201527f736b730000000000000000000000000000000000000000000000000000000000602082015250565b611dee81611b96565b8114611df957600080fd5b50565b611e0581611c00565b8114611e1057600080fd5b5056fea26469706673582212203fda2516c40095bbf6c2d3946d67389ad2ca23f6cfa160227e711f3843fe53ec64736f6c63430008030033",
  "immutableReferences": {},
  "source": "pragma solidity ^0.8.3;\r\nimport \"@openzeppelin/contracts/token/ERC721/extensions/IERC721Metadata.sol\";\r\nimport '@openzeppelin/contracts/token/ERC721/utils/ERC721Holder.sol';\r\nimport \"@openzeppelin/contracts/utils/Counters.sol\";\r\n\r\ncontract TaskAssign is ERC721Holder{\r\n\r\n  address assigner;\r\n\r\n  constructor (address authPerson){\r\n    assigner = authPerson;\r\n  }\r\n  struct Task {\r\n    uint256 taskNumber;\r\n    string desc;\r\n    string topic;\r\n    uint deadline;\r\n    address to;\r\n    uint256 idOfReward;\r\n    string info; //a link to a doc explaining deets\r\n    bool status;\r\n  }\r\n  Task [] public tasks;\r\n  uint256 public taskNo;\r\n  mapping (uint256 => Task) public taskList;\r\n  mapping (address => Task[]) public assignedTasks;\r\n  mapping(address => uint256) public assignedTasksNo;\r\n  mapping (address => mapping(uint256 => bool)) public statusOfReports;\r\n\r\n  function assignTaskToOne (string memory descT, string memory topicT, uint deadlineT, address toT, string memory infoT, uint256 NFTid) public returns(uint256){\r\n    require(msg.sender == assigner, 'Person not assigned to create Tasks');\r\n    Task memory taskCreated = Task (\r\n      taskNo,\r\n      descT,\r\n      topicT,\r\n      deadlineT,\r\n      toT,\r\n      NFTid,\r\n      infoT,\r\n      false\r\n    );\r\n    tasks.push(taskCreated);\r\n    taskList[taskNo]= taskCreated;\r\n    taskNo++;\r\n    assignedTasksNo[toT] ++;\r\n    assignedTasks[toT].push(taskCreated);\r\n    statusOfReports[toT][taskNo]=false;\r\n    return taskNo;\r\n  }\r\n\r\n  function reportStatus (uint256 taskno, address to) public {\r\n    /*Task memory taskUsed = taskList[taskno];\r\n    require(taskList[taskno].to == msg.sender , 'not your task');*/\r\n    taskList[taskno].status = true;\r\n    statusOfReports[to][taskno]=true;\r\n\r\n\r\n  }\r\n  function getStatus (uint256 taskno) public view returns(bool){\r\n    return (taskList[taskno].status);\r\n  }\r\n  function transferRewardToOne (uint256 NftId, uint256 taskId, address rewardNFT) public {\r\n    require(msg.sender == assigner);\r\n    address recep = taskList[taskId].to;\r\n    IERC721(rewardNFT).transferFrom(address(this), recep, NftId);\r\n  }\r\n\r\n  function fetchTasksCreated() public view returns (Task[] memory) {\r\n    return tasks;\r\n  }\r\n\r\n}\r\n//task can only be created by 1 person\r\n//report task completed.\r\n",
  "sourcePath": "C:/Users/Sonika Agarwal/desktop/motify/contracts/TaskAssign.sol",
  "compiler": {
    "name": "solc",
    "version": "0.8.3+commit.8d00100c.Emscripten.clang"
  },
  "schemaVersion": "3.4.1",
  "updatedAt": "2022-01-13T08:43:03.673Z",
  "devdoc": {
    "kind": "dev",
    "methods": {
      "onERC721Received(address,address,uint256,bytes)": {
        "details": "See {IERC721Receiver-onERC721Received}. Always returns `IERC721Receiver.onERC721Received.selector`."
      }
    },
    "version": 1
  },
  "userdoc": {
    "kind": "user",
    "methods": {},
    "version": 1
  }
}